:100000008A11092C00308A000408840A820700340F
:0A00100001340034003400340434DD
:10078000051DC02B0519C22B08003930F000C03000
:10079000F1008A116E248A110800F000700883129B
:1007A00003178D00831603178C130C148312031781
:1007B0000C08DA2B08000130F000C030F1008A117B
:1007C0006E248A110030F000C430F1008A116E24CA
:1007D0008A110800F0007008031DEF2BF42B703015
:1007E000831603138F00F82B831603138F01F82B46
:1007F0000800F000051DFA2B0519FC2B7018012CC0
:10080000052C831203130716082C831203130712F7
:100810000800FD01AF01B001B101B201B301B401A3
:10082000B501B601B701B801B901BA01BB01830135
:100830008A112A2FF20000308A11CD238A11F1008B
:100840007208840071088313800001308A11CD235F
:100850008A11F100720A8400710883138000302C21
:100860000800831203179E019F01FC3083160313B7
:1008700085003F3086008F308700831203171516DE
:100880008316031381138312031387168617061327
:1008900007120530900005140800F2000830F1003E
:1008A0007108F300642CF21F562C572C5C2C01307D
:1008B0008A11F9238A11612C00308A11F9238A11D7
:1008C000612C0310F20D642C0130F3027308FF3A1F
:1008D000031D6B2C6C2C532C6D2C08001030F20077
:1008E0007208F30083120313871206138B2CF11F77
:1008F0007A2C7B2C7D2C86177E2C86130617802C59
:1009000083120313061301300310F00DF10DFF3EA7
:10091000031D842C8B2C0130F3027308FF3A031D56
:10092000922C932C772C87160800F2007208831201
:1009300003178D0070088C00831603178C130C1599
:100940000B08F1007108F3008B0155308D00AA30BF
:100950008D008C1473088B000000AF2C00008312F4
:1009600003130D1EB42CB52CAE2C831603170C11DB
:10097000831203130D120800F2000830F100710811
:10098000F300DB2CF21FC52CC62CCF2C01308A11B2
:10099000F9238A1100308A11F9238A11D82C0030EA
:1009A0008A11F9238A1101308A11F9238A11D82C6E
:1009B0000310F20DDB2C0130F3027308FF3A031D24
:1009C000E22CE32CC22CE42C0800F6008312031363
:1009D0000F080F39F500760884007508831380002E
:1009E0007408031DF42CF72C7608840000170E08F9
:1009F000F500760A840075088000760884000008F7
:100A0000F5007508F00000308A1195248A11760AE5
:100A1000840083130008F5007508F00001308A1186
:100A200095248A11132D08000030F000CC30F1001D
:100A30008A116E248A11F030F0008830F1008A119A
:100A40006E248A115730F000C830F1008A116E24EC
:100A50008A114030F000D230F1008A116E248A11E0
:100A60003430F000A630F1008A116E248A11203053
:100A7000F000C230F1008A116E248A110130F000BA
:100A8000C030F1008A116E248A110800FB007B0837
:100A9000840083138017FA011D307A02031C512D44
:100AA000522D542D732D732D7B088A117E258A11AA
:100AB00040308312031387060530F9000F30F80029
:100AC000F430F700F70B622DF80B622DF90B622D55
:100AD0000130F7007708FA071D307A02031C712DE8
:100AE000722D542D732D7F30F7007B08840077081A
:100AF000831380058312031307130800F5008A117E
:100B0000C5238A114230F400F40B842D0000AA3072
:100B10008A114D248A112D308A114D248A11D43026
:100B20008A114D248A11F60109307602031C992D91
:100B30009A2D9C2DB12DB12D76087507F4007408FF
:100B40008400831300088A11BC248A110130F40048
:100B50007408F60709307602031CAF2DB02D9C2DCA
:100B6000B12D8A11C0238A118A11DB238A11080052
:100B70008A11BA268A11831203132F08F800F9018B
:100B80007808F900F80130087807FB0000300318F6
:100B900001307907FC000A30F0000030F1007C08D9
:100BA000F301F3077B08F201F2078A1100268A118C
:100BB0007108FC01FC077008FB01FB07831203139B
:100BC00038087B0600397B06B80039083106003941
:100BD0003106B9003A08320600393206BA003A083E
:100BE000FF39F8003908FF39F9003808FF3979076B
:100BF0007807FA003B087A0600397A06BB0008003D
:100C0000F501F601710870040319072E082E452E10
:100C1000F701F70A172E01300310F00DF10DFF3E1A
:100C2000031D0C2E0130F4007408F707172EF11F76
:100C30001A2E1B2E0B2E1D2E1D2E01300310F50D0E
:100C4000F60DFF3E031D1E2E71087302031D2A2E92
:100C500070087202031C2D2E2E2E362E7008F20202
:100C60007108031CF303F3027514362E01300310D0
:100C7000F10CF00CFF3E031D372E0130F702031D6F
:100C8000422E432E1D2E452E452E7608F101F107EA
:100C90007508F001F0074C2E0800FC00F401F40A7E
:100CA0007C088A11E5248A117C08023E84008313A3
:100CB0008001831203132008A5007C08033E8400F2
:100CC0002508800000302105A50000302205A6007F
:100CD00000302305A700FF302405A80018300310BA
:100CE000A80CA70CA60CA50CFF3E031D6F2E250813
:100CF000A9007C08043E8400290880002108A50082
:100D00002208A6002308A7002408A800103003101A
:100D1000A80CA70CA60CA50CFF3E031D872E2508CA
:100D2000A9007C08053E8400290880002108A50050
:100D30002208A6002308A7002408A80008300310F2
:100D4000A80CA70CA60CA50CFF3E031D9F2E250882
:100D5000A9007C08063E8400290880002108A5001F
:100D60007C08073E8400250880007C088A114625FF
:100D70008A11080083160313871183120313871146
:100D80004E30F100EB30F000F00BC42EF10BC42E0E
:100D90008316031387151730F000F00BCD2ED02EDD
:100DA00083120313871DD52ED62ED02ED82ED82EE3
:100DB0008719DB2EDC2ED82EF30105307302031CBD
:100DC000E22EE32EE52E292F292F73082F3E8400D3
:100DD00083138001F20108307202031CF02EF12E01
:100DE000F32E1E2F1E2F73082F3E84000310831333
:100DF000800DFD01FB2E83120313871D002F012F91
:100E0000FB2E03138312871D072FFD0A032F1130BA
:100E10007D02031C0C2F0D2F132F73082F3E84000F
:100E200083130014132F0130F0007008F20708300C
:100E30007202031C1C2F1D2FF32E1E2F0130F000F9
:100E40007008F30705307302031C272F282FE52EA7
:100E5000292F080001308A11EA238A118312031313
:100E600007138A1131248A118A1114258A118312D9
:100E70000313AE0108302E02031C3F2F402F422FD8
:100E8000522F522F2E08343E8400831380010130EC
:100E9000AA002A08AE0708302E02031C502F512F3B
:100EA000422F522F34308A111A248A1105308400BF
:100EB0008A1102208A1183120313AA0037082A0616
:100EC00000392A06B700AE0114302E02031C692F28
:100ED0006A2F6C2F872F872F0230AC000430AB00B5
:100EE000BA30AA00AA0B722FAB0B722FAC0B722F69
:100EF0000000013083120313AA002A08AE07143041
:100F00002E02031C842F852F6C2F872F872F0130F3
:100F10008A11EA238A118312031307178A11B8254D
:100F20008A1134308A117E258A1183120313071324
:100F300000308A11EA238A1183120313AE01403074
:100F40002E02031CA42FA52FA72F872F872F0B302E
:100F5000AB006230AA00AA0BAB2FAB0BAB2F00008B
:100F600083120313061AB52FB62FBB2F0130AA0028
:100F70002A08AD07BD2FAD01BD2F05302D02031C82
:100F8000C22FC32FEF2F01308A11EA238A110530B7
:100F900084008A1102208A1183120313AA002A08EE
:100FA000A000013084008A1102208A11A1008A1158
:100FB00002208A11A2008A1102208A11A3008A113C
:100FC00002208A11A40034308A114D268A1183121E
:100FD0000313AD0100308A11EA238A11EF2F01308B
:100FE00083120313AA002A08AE0740302E02031C06
:100FF000FA2FFB2FA72F872F872F872F8A110028E3
:02400E00E4F0DC
:00000001FF
